{
  "contractName": "BlockCheck",
  "abi": [
    {
      "inputs": [
        {
          "internalType": "uint256",
          "name": "",
          "type": "uint256"
        }
      ],
      "name": "Evaluators",
      "outputs": [
        {
          "internalType": "string",
          "name": "employee_id",
          "type": "string"
        },
        {
          "internalType": "string",
          "name": "email",
          "type": "string"
        },
        {
          "internalType": "string",
          "name": "wallet_address",
          "type": "string"
        }
      ],
      "stateMutability": "view",
      "type": "function",
      "constant": true
    },
    {
      "inputs": [
        {
          "internalType": "uint256",
          "name": "",
          "type": "uint256"
        }
      ],
      "name": "Students",
      "outputs": [
        {
          "internalType": "string",
          "name": "mis_number",
          "type": "string"
        },
        {
          "internalType": "string",
          "name": "email",
          "type": "string"
        },
        {
          "internalType": "string",
          "name": "wallet_address",
          "type": "string"
        }
      ],
      "stateMutability": "view",
      "type": "function",
      "constant": true
    },
    {
      "inputs": [
        {
          "internalType": "string",
          "name": "",
          "type": "string"
        }
      ],
      "name": "mapMIS2Submission",
      "outputs": [
        {
          "internalType": "string",
          "name": "",
          "type": "string"
        }
      ],
      "stateMutability": "view",
      "type": "function",
      "constant": true
    },
    {
      "inputs": [
        {
          "internalType": "string",
          "name": "",
          "type": "string"
        }
      ],
      "name": "mapWalletAddress2Evaluator",
      "outputs": [
        {
          "internalType": "string",
          "name": "employee_id",
          "type": "string"
        },
        {
          "internalType": "string",
          "name": "email",
          "type": "string"
        },
        {
          "internalType": "string",
          "name": "wallet_address",
          "type": "string"
        }
      ],
      "stateMutability": "view",
      "type": "function",
      "constant": true
    },
    {
      "inputs": [
        {
          "internalType": "string",
          "name": "",
          "type": "string"
        }
      ],
      "name": "mapWalletAddress2Student",
      "outputs": [
        {
          "internalType": "string",
          "name": "mis_number",
          "type": "string"
        },
        {
          "internalType": "string",
          "name": "email",
          "type": "string"
        },
        {
          "internalType": "string",
          "name": "wallet_address",
          "type": "string"
        }
      ],
      "stateMutability": "view",
      "type": "function",
      "constant": true
    },
    {
      "inputs": [],
      "name": "state_add_evaluator",
      "outputs": [
        {
          "internalType": "uint256",
          "name": "",
          "type": "uint256"
        }
      ],
      "stateMutability": "view",
      "type": "function",
      "constant": true
    },
    {
      "inputs": [],
      "name": "state_add_student",
      "outputs": [
        {
          "internalType": "uint256",
          "name": "",
          "type": "uint256"
        }
      ],
      "stateMutability": "view",
      "type": "function",
      "constant": true
    },
    {
      "inputs": [
        {
          "internalType": "string",
          "name": "_mis_number",
          "type": "string"
        }
      ],
      "name": "isAssignmentSubmitted",
      "outputs": [
        {
          "internalType": "bool",
          "name": "",
          "type": "bool"
        }
      ],
      "stateMutability": "view",
      "type": "function",
      "constant": true
    },
    {
      "inputs": [
        {
          "internalType": "string",
          "name": "_wallet_address",
          "type": "string"
        },
        {
          "internalType": "string",
          "name": "_submission",
          "type": "string"
        }
      ],
      "name": "setSubmission",
      "outputs": [],
      "stateMutability": "nonpayable",
      "type": "function"
    },
    {
      "inputs": [],
      "name": "getSubmissionState",
      "outputs": [
        {
          "internalType": "uint256",
          "name": "",
          "type": "uint256"
        }
      ],
      "stateMutability": "view",
      "type": "function",
      "constant": true
    },
    {
      "inputs": [],
      "name": "getAddEvaluatorState",
      "outputs": [
        {
          "internalType": "uint256",
          "name": "",
          "type": "uint256"
        }
      ],
      "stateMutability": "view",
      "type": "function",
      "constant": true
    },
    {
      "inputs": [
        {
          "internalType": "string",
          "name": "_employee_id",
          "type": "string"
        },
        {
          "internalType": "string",
          "name": "_email",
          "type": "string"
        },
        {
          "internalType": "string",
          "name": "_wallet_address",
          "type": "string"
        }
      ],
      "name": "addEvaluator",
      "outputs": [],
      "stateMutability": "nonpayable",
      "type": "function"
    },
    {
      "inputs": [
        {
          "components": [
            {
              "internalType": "string",
              "name": "employee_id",
              "type": "string"
            },
            {
              "internalType": "string",
              "name": "email",
              "type": "string"
            },
            {
              "internalType": "string",
              "name": "wallet_address",
              "type": "string"
            }
          ],
          "internalType": "struct Evaluator",
          "name": "item",
          "type": "tuple"
        }
      ],
      "name": "isEvaluatorRegistered",
      "outputs": [
        {
          "internalType": "bool",
          "name": "",
          "type": "bool"
        }
      ],
      "stateMutability": "view",
      "type": "function",
      "constant": true
    },
    {
      "inputs": [
        {
          "internalType": "string",
          "name": "_wallet_address",
          "type": "string"
        }
      ],
      "name": "authenticateEvaluator",
      "outputs": [
        {
          "internalType": "bool",
          "name": "",
          "type": "bool"
        }
      ],
      "stateMutability": "view",
      "type": "function",
      "constant": true
    },
    {
      "inputs": [],
      "name": "getAddStudentState",
      "outputs": [
        {
          "internalType": "uint256",
          "name": "",
          "type": "uint256"
        }
      ],
      "stateMutability": "view",
      "type": "function",
      "constant": true
    },
    {
      "inputs": [
        {
          "internalType": "string",
          "name": "_mis_number",
          "type": "string"
        },
        {
          "internalType": "string",
          "name": "_email",
          "type": "string"
        },
        {
          "internalType": "string",
          "name": "_wallet_address",
          "type": "string"
        }
      ],
      "name": "addStudent",
      "outputs": [],
      "stateMutability": "nonpayable",
      "type": "function"
    },
    {
      "inputs": [
        {
          "components": [
            {
              "internalType": "string",
              "name": "mis_number",
              "type": "string"
            },
            {
              "internalType": "string",
              "name": "email",
              "type": "string"
            },
            {
              "internalType": "string",
              "name": "wallet_address",
              "type": "string"
            }
          ],
          "internalType": "struct Student",
          "name": "item",
          "type": "tuple"
        }
      ],
      "name": "isStudentRegistered",
      "outputs": [
        {
          "internalType": "bool",
          "name": "",
          "type": "bool"
        }
      ],
      "stateMutability": "view",
      "type": "function",
      "constant": true
    },
    {
      "inputs": [
        {
          "internalType": "string",
          "name": "_wallet_address",
          "type": "string"
        }
      ],
      "name": "authenticateStudent",
      "outputs": [
        {
          "internalType": "bool",
          "name": "",
          "type": "bool"
        }
      ],
      "stateMutability": "view",
      "type": "function",
      "constant": true
    },
    {
      "inputs": [
        {
          "internalType": "string",
          "name": "_wallet_address",
          "type": "string"
        }
      ],
      "name": "getMIS",
      "outputs": [
        {
          "internalType": "string",
          "name": "",
          "type": "string"
        }
      ],
      "stateMutability": "view",
      "type": "function",
      "constant": true
    },
    {
      "inputs": [
        {
          "internalType": "string",
          "name": "S1",
          "type": "string"
        },
        {
          "internalType": "string",
          "name": "S2",
          "type": "string"
        }
      ],
      "name": "areStringsEqual",
      "outputs": [
        {
          "internalType": "bool",
          "name": "",
          "type": "bool"
        }
      ],
      "stateMutability": "pure",
      "type": "function",
      "constant": true
    }
  ],
  "bytecode": "0x608060405260006005556000600655600060075534801561001f57600080fd5b50611cd18061002f6000396000f3fe608060405234801561001057600080fd5b506004361061012c5760003560e01c806375af8b62116100ad578063aab3606d11610071578063aab3606d14610383578063b1496cd4146103b3578063cefd795b146103e3578063e6f539a314610413578063ff2fd697146104315761012c565b806375af8b62146102cb57806391655a62146102e75780639b6ae44514610305578063a5e086d414610337578063aa518b90146103675761012c565b80634d3e1d4a116100f45780634d3e1d4a146101fd57806357c8d71d1461022d57806358b7831e1461025f5780636092fdd51461027b5780636cfc989a146102995761012c565b8063077ebe6d146101315780630a9280f51461014f5780630c0550a11461017f5780631b5d51a1146101af5780632d889016146101df575b600080fd5b610139610463565b604051610146919061157a565b60405180910390f35b610169600480360381019061016491906116ef565b61046d565b6040516101769190611753565b60405180910390f35b610199600480360381019061019491906116ef565b610546565b6040516101a69190611753565b60405180910390f35b6101c960048036038101906101c491906116ef565b610621565b6040516101d691906117f6565b60405180910390f35b6101e76106d7565b6040516101f4919061157a565b60405180910390f35b610217600480360381019061021291906118da565b6106dd565b6040516102249190611753565b60405180910390f35b6102476004803603810190610242919061194f565b6107bc565b6040516102569392919061197c565b60405180910390f35b610279600480360381019061027491906119c8565b61098e565b005b610283610adc565b604051610290919061157a565b60405180910390f35b6102b360048036038101906102ae91906116ef565b610ae2565b6040516102c29392919061197c565b60405180910390f35b6102e560048036038101906102e09190611a6f565b610cba565b005b6102ef610d2a565b6040516102fc919061157a565b60405180910390f35b61031f600480360381019061031a91906116ef565b610d34565b60405161032e9392919061197c565b60405180910390f35b610351600480360381019061034c91906116ef565b610f0c565b60405161035e91906117f6565b60405180910390f35b610381600480360381019061037c91906119c8565b610fbf565b005b61039d600480360381019061039891906116ef565b61110d565b6040516103aa9190611753565b60405180910390f35b6103cd60048036038101906103c89190611a6f565b6111e8565b6040516103da9190611753565b60405180910390f35b6103fd60048036038101906103f89190611b9f565b611203565b60405161040a9190611753565b60405180910390f35b61041b6112e2565b604051610428919061157a565b60405180910390f35b61044b6004803603810190610446919061194f565b6112ec565b60405161045a9392919061197c565b60405180910390f35b6000600754905090565b600061052e6004836040516104829190611c24565b9081526020016040518091039020805461049b90611c6a565b80601f01602080910402602001604051908101604052809291908181526020018280546104c790611c6a565b80156105145780601f106104e957610100808354040283529160200191610514565b820191906000526020600020905b8154815290600101906020018083116104f757829003601f168201915b5050505050604051806020016040528060008152506111e8565b1561053c5760009050610541565b600190505b919050565b600061060a60028360405161055b9190611c24565b9081526020016040518091039020600001805461057790611c6a565b80601f01602080910402602001604051908101604052809291908181526020018280546105a390611c6a565b80156105f05780601f106105c5576101008083540402835291602001916105f0565b820191906000526020600020905b8154815290600101906020018083116105d357829003601f168201915b5050505050604051806020016040528060008152506111e8565b610617576001905061061c565b600090505b919050565b600481805160208101820180518482526020830160208501208183528095505050505050600091509050805461065690611c6a565b80601f016020809104026020016040519081016040528092919081815260200182805461068290611c6a565b80156106cf5780601f106106a4576101008083540402835291602001916106cf565b820191906000526020600020905b8154815290600101906020018083116106b257829003601f168201915b505050505081565b60065481565b60006107a5600383604001516040516106f69190611c24565b9081526020016040518091039020600001805461071290611c6a565b80601f016020809104026020016040519081016040528092919081815260200182805461073e90611c6a565b801561078b5780601f106107605761010080835404028352916020019161078b565b820191906000526020600020905b81548152906001019060200180831161076e57829003601f168201915b5050505050604051806020016040528060008152506111e8565b6107b257600190506107b7565b600090505b919050565b600181815481106107cc57600080fd5b90600052602060002090600302016000915090508060000180546107ef90611c6a565b80601f016020809104026020016040519081016040528092919081815260200182805461081b90611c6a565b80156108685780601f1061083d57610100808354040283529160200191610868565b820191906000526020600020905b81548152906001019060200180831161084b57829003601f168201915b50505050509080600101805461087d90611c6a565b80601f01602080910402602001604051908101604052809291908181526020018280546108a990611c6a565b80156108f65780601f106108cb576101008083540402835291602001916108f6565b820191906000526020600020905b8154815290600101906020018083116108d957829003601f168201915b50505050509080600201805461090b90611c6a565b80601f016020809104026020016040519081016040528092919081815260200182805461093790611c6a565b80156109845780601f1061095957610100808354040283529160200191610984565b820191906000526020600020905b81548152906001019060200180831161096757829003601f168201915b5050505050905083565b6000600681905550600060405180606001604052808581526020018481526020018381525090506109be81611203565b610acd5760008190806001815401808255809150506001900390600052602060002090600302016000909190919091506000820151816000019080519060200190610a0a9291906114be565b506020820151816001019080519060200190610a279291906114be565b506040820151816002019080519060200190610a449291906114be565b50505080600283604051610a589190611c24565b90815260200160405180910390206000820151816000019080519060200190610a829291906114be565b506020820151816001019080519060200190610a9f9291906114be565b506040820151816002019080519060200190610abc9291906114be565b509050506001600681905550610ad6565b60026006819055505b50505050565b60075481565b600281805160208101820180518482526020830160208501208183528095505050505050600091509050806000018054610b1b90611c6a565b80601f0160208091040260200160405190810160405280929190818152602001828054610b4790611c6a565b8015610b945780601f10610b6957610100808354040283529160200191610b94565b820191906000526020600020905b815481529060010190602001808311610b7757829003601f168201915b505050505090806001018054610ba990611c6a565b80601f0160208091040260200160405190810160405280929190818152602001828054610bd590611c6a565b8015610c225780601f10610bf757610100808354040283529160200191610c22565b820191906000526020600020905b815481529060010190602001808311610c0557829003601f168201915b505050505090806002018054610c3790611c6a565b80601f0160208091040260200160405190810160405280929190818152602001828054610c6390611c6a565b8015610cb05780601f10610c8557610100808354040283529160200191610cb0565b820191906000526020600020905b815481529060010190602001808311610c9357829003601f168201915b5050505050905083565b60006005819055506000610ccd83610f0c565b9050610cd88161046d565b610d1c5781600482604051610ced9190611c24565b90815260200160405180910390209080519060200190610d0e9291906114be565b506001600581905550610d25565b60026005819055505b505050565b6000600654905090565b600381805160208101820180518482526020830160208501208183528095505050505050600091509050806000018054610d6d90611c6a565b80601f0160208091040260200160405190810160405280929190818152602001828054610d9990611c6a565b8015610de65780601f10610dbb57610100808354040283529160200191610de6565b820191906000526020600020905b815481529060010190602001808311610dc957829003601f168201915b505050505090806001018054610dfb90611c6a565b80601f0160208091040260200160405190810160405280929190818152602001828054610e2790611c6a565b8015610e745780601f10610e4957610100808354040283529160200191610e74565b820191906000526020600020905b815481529060010190602001808311610e5757829003601f168201915b505050505090806002018054610e8990611c6a565b80601f0160208091040260200160405190810160405280929190818152602001828054610eb590611c6a565b8015610f025780601f10610ed757610100808354040283529160200191610f02565b820191906000526020600020905b815481529060010190602001808311610ee557829003601f168201915b5050505050905083565b6060600382604051610f1e9190611c24565b90815260200160405180910390206000018054610f3a90611c6a565b80601f0160208091040260200160405190810160405280929190818152602001828054610f6690611c6a565b8015610fb35780601f10610f8857610100808354040283529160200191610fb3565b820191906000526020600020905b815481529060010190602001808311610f9657829003601f168201915b50505050509050919050565b600060078190555060006040518060600160405280858152602001848152602001838152509050610fef816106dd565b6110fe576001819080600181540180825580915050600190039060005260206000209060030201600090919091909150600082015181600001908051906020019061103b9291906114be565b5060208201518160010190805190602001906110589291906114be565b5060408201518160020190805190602001906110759291906114be565b505050806003836040516110899190611c24565b908152602001604051809103902060008201518160000190805190602001906110b39291906114be565b5060208201518160010190805190602001906110d09291906114be565b5060408201518160020190805190602001906110ed9291906114be565b509050506001600781905550611107565b60026007819055505b50505050565b60006111d16003836040516111229190611c24565b9081526020016040518091039020600001805461113e90611c6a565b80601f016020809104026020016040519081016040528092919081815260200182805461116a90611c6a565b80156111b75780601f1061118c576101008083540402835291602001916111b7565b820191906000526020600020905b81548152906001019060200180831161119a57829003601f168201915b5050505050604051806020016040528060008152506111e8565b6111de57600190506111e3565b600090505b919050565b60008180519060200120838051906020012014905092915050565b60006112cb6002836040015160405161121c9190611c24565b9081526020016040518091039020600001805461123890611c6a565b80601f016020809104026020016040519081016040528092919081815260200182805461126490611c6a565b80156112b15780601f10611286576101008083540402835291602001916112b1565b820191906000526020600020905b81548152906001019060200180831161129457829003601f168201915b5050505050604051806020016040528060008152506111e8565b6112d857600190506112dd565b600090505b919050565b6000600554905090565b600081815481106112fc57600080fd5b906000526020600020906003020160009150905080600001805461131f90611c6a565b80601f016020809104026020016040519081016040528092919081815260200182805461134b90611c6a565b80156113985780601f1061136d57610100808354040283529160200191611398565b820191906000526020600020905b81548152906001019060200180831161137b57829003601f168201915b5050505050908060010180546113ad90611c6a565b80601f01602080910402602001604051908101604052809291908181526020018280546113d990611c6a565b80156114265780601f106113fb57610100808354040283529160200191611426565b820191906000526020600020905b81548152906001019060200180831161140957829003601f168201915b50505050509080600201805461143b90611c6a565b80601f016020809104026020016040519081016040528092919081815260200182805461146790611c6a565b80156114b45780601f10611489576101008083540402835291602001916114b4565b820191906000526020600020905b81548152906001019060200180831161149757829003601f168201915b5050505050905083565b8280546114ca90611c6a565b90600052602060002090601f0160209004810192826114ec5760008555611533565b82601f1061150557805160ff1916838001178555611533565b82800160010185558215611533579182015b82811115611532578251825591602001919060010190611517565b5b5090506115409190611544565b5090565b5b8082111561155d576000816000905550600101611545565b5090565b6000819050919050565b61157481611561565b82525050565b600060208201905061158f600083018461156b565b92915050565b6000604051905090565b600080fd5b600080fd5b600080fd5b600080fd5b6000601f19601f8301169050919050565b7f4e487b7100000000000000000000000000000000000000000000000000000000600052604160045260246000fd5b6115fc826115b3565b810181811067ffffffffffffffff8211171561161b5761161a6115c4565b5b80604052505050565b600061162e611595565b905061163a82826115f3565b919050565b600067ffffffffffffffff82111561165a576116596115c4565b5b611663826115b3565b9050602081019050919050565b82818337600083830152505050565b600061169261168d8461163f565b611624565b9050828152602081018484840111156116ae576116ad6115ae565b5b6116b9848285611670565b509392505050565b600082601f8301126116d6576116d56115a9565b5b81356116e684826020860161167f565b91505092915050565b6000602082840312156117055761170461159f565b5b600082013567ffffffffffffffff811115611723576117226115a4565b5b61172f848285016116c1565b91505092915050565b60008115159050919050565b61174d81611738565b82525050565b60006020820190506117686000830184611744565b92915050565b600081519050919050565b600082825260208201905092915050565b60005b838110156117a857808201518184015260208101905061178d565b838111156117b7576000848401525b50505050565b60006117c88261176e565b6117d28185611779565b93506117e281856020860161178a565b6117eb816115b3565b840191505092915050565b6000602082019050818103600083015261181081846117bd565b905092915050565b600080fd5b600080fd5b60006060828403121561183857611837611818565b5b6118426060611624565b9050600082013567ffffffffffffffff8111156118625761186161181d565b5b61186e848285016116c1565b600083015250602082013567ffffffffffffffff8111156118925761189161181d565b5b61189e848285016116c1565b602083015250604082013567ffffffffffffffff8111156118c2576118c161181d565b5b6118ce848285016116c1565b60408301525092915050565b6000602082840312156118f0576118ef61159f565b5b600082013567ffffffffffffffff81111561190e5761190d6115a4565b5b61191a84828501611822565b91505092915050565b61192c81611561565b811461193757600080fd5b50565b60008135905061194981611923565b92915050565b6000602082840312156119655761196461159f565b5b60006119738482850161193a565b91505092915050565b6000606082019050818103600083015261199681866117bd565b905081810360208301526119aa81856117bd565b905081810360408301526119be81846117bd565b9050949350505050565b6000806000606084860312156119e1576119e061159f565b5b600084013567ffffffffffffffff8111156119ff576119fe6115a4565b5b611a0b868287016116c1565b935050602084013567ffffffffffffffff811115611a2c57611a2b6115a4565b5b611a38868287016116c1565b925050604084013567ffffffffffffffff811115611a5957611a586115a4565b5b611a65868287016116c1565b9150509250925092565b60008060408385031215611a8657611a8561159f565b5b600083013567ffffffffffffffff811115611aa457611aa36115a4565b5b611ab0858286016116c1565b925050602083013567ffffffffffffffff811115611ad157611ad06115a4565b5b611add858286016116c1565b9150509250929050565b600060608284031215611afd57611afc611818565b5b611b076060611624565b9050600082013567ffffffffffffffff811115611b2757611b2661181d565b5b611b33848285016116c1565b600083015250602082013567ffffffffffffffff811115611b5757611b5661181d565b5b611b63848285016116c1565b602083015250604082013567ffffffffffffffff811115611b8757611b8661181d565b5b611b93848285016116c1565b60408301525092915050565b600060208284031215611bb557611bb461159f565b5b600082013567ffffffffffffffff811115611bd357611bd26115a4565b5b611bdf84828501611ae7565b91505092915050565b600081905092915050565b6000611bfe8261176e565b611c088185611be8565b9350611c1881856020860161178a565b80840191505092915050565b6000611c308284611bf3565b915081905092915050565b7f4e487b7100000000000000000000000000000000000000000000000000000000600052602260045260246000fd5b60006002820490506001821680611c8257607f821691505b602082108103611c9557611c94611c3b565b5b5091905056fea2646970667358221220131bf919db5b89c77b790dc1a9fc4df9340cd8782265d766f40bd9feaed5b43164736f6c634300080d0033",
  "immutableReferences": {},
  "source": "// SPDX-License-Identifier: MIT\r\npragma solidity ^0.8.10;\r\n\r\nstruct Evaluator{\r\n    string employee_id;\r\n    string email;\r\n    string wallet_address;\r\n}\r\n\r\nstruct Student{\r\n    string mis_number;\r\n    string email;\r\n    string wallet_address;\r\n}\r\n\r\ncontract BlockCheck{\r\n    Evaluator[] public Evaluators;\r\n    Student[] public Students;\r\n    mapping (string=>Evaluator) public mapWalletAddress2Evaluator;\r\n    mapping (string=>Student) public mapWalletAddress2Student;\r\n    mapping (string=>string) public mapMIS2Submission;\r\n\r\n\r\n    // Assignment functions START\r\n    function isAssignmentSubmitted(string memory _mis_number) public view returns(bool) {\r\n        if(areStringsEqual(mapMIS2Submission[_mis_number], \"\")) {\r\n            return false;\r\n        }\r\n        else {\r\n            return true;\r\n        }\r\n        \r\n    }\r\n    uint submissionState = 0;\r\n    function setSubmission(string memory _wallet_address, string memory _submission) public {\r\n        submissionState = 0;\r\n        string memory _mis_number = getMIS(_wallet_address);\r\n        if(!isAssignmentSubmitted(_mis_number)) {\r\n            mapMIS2Submission[_mis_number] = _submission;\r\n            submissionState = 1;\r\n        }\r\n        else {\r\n            submissionState = 2;\r\n        }\r\n    }\r\n    function getSubmissionState() public view returns(uint) {\r\n        return submissionState;\r\n    }\r\n\r\n\r\n    // Assignment functions END\r\n\r\n    // Evaluator functions START\r\n    uint public state_add_evaluator = 0; // 0:not added\r\n    function getAddEvaluatorState() public view returns(uint) {\r\n        return state_add_evaluator;\r\n    }\r\n    function addEvaluator(string memory _employee_id, string memory _email, string memory _wallet_address) public {\r\n        state_add_evaluator = 0;\r\n        Evaluator memory newEvaluator = Evaluator({\r\n                    employee_id:_employee_id, \r\n                    email:_email,\r\n                    wallet_address:_wallet_address\r\n        });\r\n\r\n        if(!isEvaluatorRegistered(newEvaluator)) {\r\n                Evaluators.push(newEvaluator);\r\n                mapWalletAddress2Evaluator[_wallet_address] = newEvaluator;\r\n                state_add_evaluator = 1;\r\n        }\r\n        else {\r\n            state_add_evaluator = 2;\r\n        }\r\n    }\r\n\r\n    function isEvaluatorRegistered(Evaluator memory item) public view returns(bool) {\r\n        if(!areStringsEqual(mapWalletAddress2Evaluator[item.wallet_address].employee_id,\"\")) return true;\r\n        else return false;\r\n    }\r\n\r\n    function authenticateEvaluator(string memory _wallet_address) public view returns(bool) {\r\n        if(!areStringsEqual(mapWalletAddress2Evaluator[_wallet_address].employee_id,\"\")) return true;\r\n        else return false;\r\n    }\r\n\r\n    // Evaluator functions END\r\n\r\n    // Student functions START\r\n    \r\n    uint public state_add_student = 0; // 0:not added\r\n    function getAddStudentState() public view returns(uint) {\r\n        return state_add_student;\r\n    }\r\n    function addStudent(string memory _mis_number, string memory _email, string memory _wallet_address) public {\r\n        state_add_student = 0;\r\n        Student memory newStudent = Student({\r\n                    mis_number:_mis_number, \r\n                    email:_email,\r\n                    wallet_address:_wallet_address\r\n        });\r\n\r\n        if(!isStudentRegistered(newStudent)) {\r\n                Students.push(newStudent);\r\n                mapWalletAddress2Student[_wallet_address] = newStudent;\r\n                state_add_student = 1;\r\n        }\r\n        else {\r\n            state_add_student = 2;\r\n        }\r\n    }\r\n\r\n    function isStudentRegistered(Student memory item) public view returns(bool) {\r\n        if(!areStringsEqual(mapWalletAddress2Student[item.wallet_address].mis_number,\"\")) return true;\r\n        else return false;\r\n    }\r\n\r\n    function authenticateStudent(string memory _wallet_address) public view returns(bool) {\r\n        if(!areStringsEqual(mapWalletAddress2Student[_wallet_address].mis_number,\"\")) return true;\r\n        else return false;\r\n    }\r\n\r\n    function getMIS(string memory _wallet_address) public view returns(string memory) {\r\n        return mapWalletAddress2Student[_wallet_address].mis_number;\r\n    }\r\n\r\n    // Student functions END\r\n\r\n\r\n\r\n    // utility functions START\r\n    function areStringsEqual(string memory S1, string memory S2) public pure returns(bool){\r\n        return keccak256(bytes(S1)) == keccak256(bytes(S2));\r\n    }\r\n    // utility functions END\r\n}",
  "sourcePath": "D:\\Blockchain-Projects\\Plagiarism-Checker\\contracts\\BlockCheck.sol",
  "compiler": {
    "name": "solc",
    "version": "0.8.13+commit.abaa5c0e.Emscripten.clang"
  },
  "schemaVersion": "3.4.4",
  "updatedAt": "2022-04-26T05:44:33.627Z",
  "networkType": "ethereum",
  "devdoc": {
    "kind": "dev",
    "methods": {},
    "version": 1
  },
  "userdoc": {
    "kind": "user",
    "methods": {},
    "version": 1
  }
}