{
  "contractName": "BlockCheck",
  "abi": [
    {
      "inputs": [
        {
          "internalType": "uint256",
          "name": "",
          "type": "uint256"
        }
      ],
      "name": "Evaluators",
      "outputs": [
        {
          "internalType": "string",
          "name": "employee_id",
          "type": "string"
        },
        {
          "internalType": "string",
          "name": "email",
          "type": "string"
        },
        {
          "internalType": "string",
          "name": "wallet_address",
          "type": "string"
        }
      ],
      "stateMutability": "view",
      "type": "function",
      "constant": true
    },
    {
      "inputs": [
        {
          "internalType": "uint256",
          "name": "",
          "type": "uint256"
        }
      ],
      "name": "MIS_arr",
      "outputs": [
        {
          "internalType": "string",
          "name": "",
          "type": "string"
        }
      ],
      "stateMutability": "view",
      "type": "function",
      "constant": true
    },
    {
      "inputs": [
        {
          "internalType": "uint256",
          "name": "",
          "type": "uint256"
        }
      ],
      "name": "Students",
      "outputs": [
        {
          "internalType": "string",
          "name": "mis_number",
          "type": "string"
        },
        {
          "internalType": "string",
          "name": "email",
          "type": "string"
        },
        {
          "internalType": "string",
          "name": "wallet_address",
          "type": "string"
        }
      ],
      "stateMutability": "view",
      "type": "function",
      "constant": true
    },
    {
      "inputs": [
        {
          "internalType": "string",
          "name": "",
          "type": "string"
        }
      ],
      "name": "mapMIS2Submission",
      "outputs": [
        {
          "internalType": "string",
          "name": "",
          "type": "string"
        }
      ],
      "stateMutability": "view",
      "type": "function",
      "constant": true
    },
    {
      "inputs": [
        {
          "internalType": "string",
          "name": "",
          "type": "string"
        }
      ],
      "name": "mapWalletAddress2Evaluator",
      "outputs": [
        {
          "internalType": "string",
          "name": "employee_id",
          "type": "string"
        },
        {
          "internalType": "string",
          "name": "email",
          "type": "string"
        },
        {
          "internalType": "string",
          "name": "wallet_address",
          "type": "string"
        }
      ],
      "stateMutability": "view",
      "type": "function",
      "constant": true
    },
    {
      "inputs": [
        {
          "internalType": "string",
          "name": "",
          "type": "string"
        }
      ],
      "name": "mapWalletAddress2Student",
      "outputs": [
        {
          "internalType": "string",
          "name": "mis_number",
          "type": "string"
        },
        {
          "internalType": "string",
          "name": "email",
          "type": "string"
        },
        {
          "internalType": "string",
          "name": "wallet_address",
          "type": "string"
        }
      ],
      "stateMutability": "view",
      "type": "function",
      "constant": true
    },
    {
      "inputs": [],
      "name": "state_add_evaluator",
      "outputs": [
        {
          "internalType": "uint256",
          "name": "",
          "type": "uint256"
        }
      ],
      "stateMutability": "view",
      "type": "function",
      "constant": true
    },
    {
      "inputs": [],
      "name": "state_add_student",
      "outputs": [
        {
          "internalType": "uint256",
          "name": "",
          "type": "uint256"
        }
      ],
      "stateMutability": "view",
      "type": "function",
      "constant": true
    },
    {
      "inputs": [
        {
          "internalType": "uint256",
          "name": "",
          "type": "uint256"
        }
      ],
      "name": "submission_arr",
      "outputs": [
        {
          "internalType": "string",
          "name": "",
          "type": "string"
        }
      ],
      "stateMutability": "view",
      "type": "function",
      "constant": true
    },
    {
      "inputs": [
        {
          "internalType": "string",
          "name": "_mis_number",
          "type": "string"
        }
      ],
      "name": "isAssignmentSubmitted",
      "outputs": [
        {
          "internalType": "bool",
          "name": "",
          "type": "bool"
        }
      ],
      "stateMutability": "view",
      "type": "function",
      "constant": true
    },
    {
      "inputs": [],
      "name": "getAllSubmissions",
      "outputs": [
        {
          "internalType": "string[]",
          "name": "",
          "type": "string[]"
        },
        {
          "internalType": "string[]",
          "name": "",
          "type": "string[]"
        }
      ],
      "stateMutability": "view",
      "type": "function",
      "constant": true
    },
    {
      "inputs": [
        {
          "internalType": "string",
          "name": "_wallet_address",
          "type": "string"
        },
        {
          "internalType": "string",
          "name": "_submission",
          "type": "string"
        }
      ],
      "name": "setSubmission",
      "outputs": [],
      "stateMutability": "nonpayable",
      "type": "function"
    },
    {
      "inputs": [],
      "name": "getSubmissionState",
      "outputs": [
        {
          "internalType": "uint256",
          "name": "",
          "type": "uint256"
        }
      ],
      "stateMutability": "view",
      "type": "function",
      "constant": true
    },
    {
      "inputs": [],
      "name": "getAddEvaluatorState",
      "outputs": [
        {
          "internalType": "uint256",
          "name": "",
          "type": "uint256"
        }
      ],
      "stateMutability": "view",
      "type": "function",
      "constant": true
    },
    {
      "inputs": [
        {
          "internalType": "string",
          "name": "_employee_id",
          "type": "string"
        },
        {
          "internalType": "string",
          "name": "_email",
          "type": "string"
        },
        {
          "internalType": "string",
          "name": "_wallet_address",
          "type": "string"
        }
      ],
      "name": "addEvaluator",
      "outputs": [],
      "stateMutability": "nonpayable",
      "type": "function"
    },
    {
      "inputs": [
        {
          "components": [
            {
              "internalType": "string",
              "name": "employee_id",
              "type": "string"
            },
            {
              "internalType": "string",
              "name": "email",
              "type": "string"
            },
            {
              "internalType": "string",
              "name": "wallet_address",
              "type": "string"
            }
          ],
          "internalType": "struct Evaluator",
          "name": "item",
          "type": "tuple"
        }
      ],
      "name": "isEvaluatorRegistered",
      "outputs": [
        {
          "internalType": "bool",
          "name": "",
          "type": "bool"
        }
      ],
      "stateMutability": "view",
      "type": "function",
      "constant": true
    },
    {
      "inputs": [
        {
          "internalType": "string",
          "name": "_wallet_address",
          "type": "string"
        }
      ],
      "name": "authenticateEvaluator",
      "outputs": [
        {
          "internalType": "bool",
          "name": "",
          "type": "bool"
        }
      ],
      "stateMutability": "view",
      "type": "function",
      "constant": true
    },
    {
      "inputs": [],
      "name": "getAddStudentState",
      "outputs": [
        {
          "internalType": "uint256",
          "name": "",
          "type": "uint256"
        }
      ],
      "stateMutability": "view",
      "type": "function",
      "constant": true
    },
    {
      "inputs": [
        {
          "internalType": "string",
          "name": "_mis_number",
          "type": "string"
        },
        {
          "internalType": "string",
          "name": "_email",
          "type": "string"
        },
        {
          "internalType": "string",
          "name": "_wallet_address",
          "type": "string"
        }
      ],
      "name": "addStudent",
      "outputs": [],
      "stateMutability": "nonpayable",
      "type": "function"
    },
    {
      "inputs": [
        {
          "components": [
            {
              "internalType": "string",
              "name": "mis_number",
              "type": "string"
            },
            {
              "internalType": "string",
              "name": "email",
              "type": "string"
            },
            {
              "internalType": "string",
              "name": "wallet_address",
              "type": "string"
            }
          ],
          "internalType": "struct Student",
          "name": "item",
          "type": "tuple"
        }
      ],
      "name": "isStudentRegistered",
      "outputs": [
        {
          "internalType": "bool",
          "name": "",
          "type": "bool"
        }
      ],
      "stateMutability": "view",
      "type": "function",
      "constant": true
    },
    {
      "inputs": [
        {
          "internalType": "string",
          "name": "_wallet_address",
          "type": "string"
        }
      ],
      "name": "authenticateStudent",
      "outputs": [
        {
          "internalType": "bool",
          "name": "",
          "type": "bool"
        }
      ],
      "stateMutability": "view",
      "type": "function",
      "constant": true
    },
    {
      "inputs": [
        {
          "internalType": "string",
          "name": "_wallet_address",
          "type": "string"
        }
      ],
      "name": "getMIS",
      "outputs": [
        {
          "internalType": "string",
          "name": "",
          "type": "string"
        }
      ],
      "stateMutability": "view",
      "type": "function",
      "constant": true
    },
    {
      "inputs": [
        {
          "internalType": "string",
          "name": "S1",
          "type": "string"
        },
        {
          "internalType": "string",
          "name": "S2",
          "type": "string"
        }
      ],
      "name": "areStringsEqual",
      "outputs": [
        {
          "internalType": "bool",
          "name": "",
          "type": "bool"
        }
      ],
      "stateMutability": "pure",
      "type": "function",
      "constant": true
    }
  ],
  "bytecode": "0x608060405260006007556000600855600060095534801561001f57600080fd5b506122398061002f6000396000f3fe608060405234801561001057600080fd5b506004361061014d5760003560e01c80636cfc989a116100c3578063aab3606d1161007c578063aab3606d146103f3578063b1496cd414610423578063cefd795b14610453578063e6f539a314610483578063f6b38797146104a1578063ff2fd697146104d15761014d565b80636cfc989a1461030957806375af8b621461033b57806391655a62146103575780639b6ae44514610375578063a5e086d4146103a7578063aa518b90146103d75761014d565b80632d889016116101155780632d889016146102305780634d3e1d4a1461024e57806357c8d71d1461027e57806358b7831e146102b05780636092fdd5146102cc57806362bd983a146102ea5761014d565b8063077ebe6d146101525780630a9280f5146101705780630c0550a1146101a057806316b86bba146101d05780631b5d51a114610200575b600080fd5b61015a610503565b604051610167919061199f565b60405180910390f35b61018a60048036038101906101859190611b14565b61050d565b6040516101979190611b78565b60405180910390f35b6101ba60048036038101906101b59190611b14565b6105e6565b6040516101c79190611b78565b60405180910390f35b6101ea60048036038101906101e59190611bbf565b6106c1565b6040516101f79190611c74565b60405180910390f35b61021a60048036038101906102159190611b14565b61076d565b6040516102279190611c74565b60405180910390f35b610238610823565b604051610245919061199f565b60405180910390f35b61026860048036038101906102639190611d58565b610829565b6040516102759190611b78565b60405180910390f35b61029860048036038101906102939190611bbf565b610908565b6040516102a793929190611da1565b60405180910390f35b6102ca60048036038101906102c59190611ded565b610ada565b005b6102d4610c28565b6040516102e1919061199f565b60405180910390f35b6102f2610c2e565b604051610300929190611fa0565b60405180910390f35b610323600480360381019061031e9190611b14565b610de3565b60405161033293929190611da1565b60405180910390f35b61035560048036038101906103509190611fd7565b610fbb565b005b61035f6110a3565b60405161036c919061199f565b60405180910390f35b61038f600480360381019061038a9190611b14565b6110ad565b60405161039e93929190611da1565b60405180910390f35b6103c160048036038101906103bc9190611b14565b611285565b6040516103ce9190611c74565b60405180910390f35b6103f160048036038101906103ec9190611ded565b611338565b005b61040d60048036038101906104089190611b14565b611486565b60405161041a9190611b78565b60405180910390f35b61043d60048036038101906104389190611fd7565b611561565b60405161044a9190611b78565b60405180910390f35b61046d60048036038101906104689190612107565b61157c565b60405161047a9190611b78565b60405180910390f35b61048b61165b565b604051610498919061199f565b60405180910390f35b6104bb60048036038101906104b69190611bbf565b611665565b6040516104c89190611c74565b60405180910390f35b6104eb60048036038101906104e69190611bbf565b611711565b6040516104fa93929190611da1565b60405180910390f35b6000600954905090565b60006105ce600483604051610522919061218c565b9081526020016040518091039020805461053b906121d2565b80601f0160208091040260200160405190810160405280929190818152602001828054610567906121d2565b80156105b45780601f10610589576101008083540402835291602001916105b4565b820191906000526020600020905b81548152906001019060200180831161059757829003601f168201915b505050505060405180602001604052806000815250611561565b156105dc57600090506105e1565b600190505b919050565b60006106aa6002836040516105fb919061218c565b90815260200160405180910390206000018054610617906121d2565b80601f0160208091040260200160405190810160405280929190818152602001828054610643906121d2565b80156106905780601f1061066557610100808354040283529160200191610690565b820191906000526020600020905b81548152906001019060200180831161067357829003601f168201915b505050505060405180602001604052806000815250611561565b6106b757600190506106bc565b600090505b919050565b600681815481106106d157600080fd5b9060005260206000200160009150905080546106ec906121d2565b80601f0160208091040260200160405190810160405280929190818152602001828054610718906121d2565b80156107655780601f1061073a57610100808354040283529160200191610765565b820191906000526020600020905b81548152906001019060200180831161074857829003601f168201915b505050505081565b60048180516020810182018051848252602083016020850120818352809550505050505060009150905080546107a2906121d2565b80601f01602080910402602001604051908101604052809291908181526020018280546107ce906121d2565b801561081b5780601f106107f05761010080835404028352916020019161081b565b820191906000526020600020905b8154815290600101906020018083116107fe57829003601f168201915b505050505081565b60085481565b60006108f160038360400151604051610842919061218c565b9081526020016040518091039020600001805461085e906121d2565b80601f016020809104026020016040519081016040528092919081815260200182805461088a906121d2565b80156108d75780601f106108ac576101008083540402835291602001916108d7565b820191906000526020600020905b8154815290600101906020018083116108ba57829003601f168201915b505050505060405180602001604052806000815250611561565b6108fe5760019050610903565b600090505b919050565b6001818154811061091857600080fd5b906000526020600020906003020160009150905080600001805461093b906121d2565b80601f0160208091040260200160405190810160405280929190818152602001828054610967906121d2565b80156109b45780601f10610989576101008083540402835291602001916109b4565b820191906000526020600020905b81548152906001019060200180831161099757829003601f168201915b5050505050908060010180546109c9906121d2565b80601f01602080910402602001604051908101604052809291908181526020018280546109f5906121d2565b8015610a425780601f10610a1757610100808354040283529160200191610a42565b820191906000526020600020905b815481529060010190602001808311610a2557829003601f168201915b505050505090806002018054610a57906121d2565b80601f0160208091040260200160405190810160405280929190818152602001828054610a83906121d2565b8015610ad05780601f10610aa557610100808354040283529160200191610ad0565b820191906000526020600020905b815481529060010190602001808311610ab357829003601f168201915b5050505050905083565b600060088190555060006040518060600160405280858152602001848152602001838152509050610b0a8161157c565b610c195760008190806001815401808255809150506001900390600052602060002090600302016000909190919091506000820151816000019080519060200190610b569291906118e3565b506020820151816001019080519060200190610b739291906118e3565b506040820151816002019080519060200190610b909291906118e3565b50505080600283604051610ba4919061218c565b90815260200160405180910390206000820151816000019080519060200190610bce9291906118e3565b506020820151816001019080519060200190610beb9291906118e3565b506040820151816002019080519060200190610c089291906118e3565b509050506001600881905550610c22565b60026008819055505b50505050565b60095481565b6060806005600681805480602002602001604051908101604052809291908181526020016000905b82821015610d02578382906000526020600020018054610c75906121d2565b80601f0160208091040260200160405190810160405280929190818152602001828054610ca1906121d2565b8015610cee5780601f10610cc357610100808354040283529160200191610cee565b820191906000526020600020905b815481529060010190602001808311610cd157829003601f168201915b505050505081526020019060010190610c56565b50505050915080805480602002602001604051908101604052809291908181526020016000905b82821015610dd5578382906000526020600020018054610d48906121d2565b80601f0160208091040260200160405190810160405280929190818152602001828054610d74906121d2565b8015610dc15780601f10610d9657610100808354040283529160200191610dc1565b820191906000526020600020905b815481529060010190602001808311610da457829003601f168201915b505050505081526020019060010190610d29565b505050509050915091509091565b600281805160208101820180518482526020830160208501208183528095505050505050600091509050806000018054610e1c906121d2565b80601f0160208091040260200160405190810160405280929190818152602001828054610e48906121d2565b8015610e955780601f10610e6a57610100808354040283529160200191610e95565b820191906000526020600020905b815481529060010190602001808311610e7857829003601f168201915b505050505090806001018054610eaa906121d2565b80601f0160208091040260200160405190810160405280929190818152602001828054610ed6906121d2565b8015610f235780601f10610ef857610100808354040283529160200191610f23565b820191906000526020600020905b815481529060010190602001808311610f0657829003601f168201915b505050505090806002018054610f38906121d2565b80601f0160208091040260200160405190810160405280929190818152602001828054610f64906121d2565b8015610fb15780601f10610f8657610100808354040283529160200191610fb1565b820191906000526020600020905b815481529060010190602001808311610f9457829003601f168201915b5050505050905083565b60006007819055506000610fce83611285565b9050610fd98161050d565b6110955781600482604051610fee919061218c565b9081526020016040518091039020908051906020019061100f9291906118e3565b5060058190806001815401808255809150506001900390600052602060002001600090919091909150908051906020019061104b9291906118e3565b506006829080600181540180825580915050600190039060005260206000200160009091909190915090805190602001906110879291906118e3565b50600160078190555061109e565b60026007819055505b505050565b6000600854905090565b6003818051602081018201805184825260208301602085012081835280955050505050506000915090508060000180546110e6906121d2565b80601f0160208091040260200160405190810160405280929190818152602001828054611112906121d2565b801561115f5780601f106111345761010080835404028352916020019161115f565b820191906000526020600020905b81548152906001019060200180831161114257829003601f168201915b505050505090806001018054611174906121d2565b80601f01602080910402602001604051908101604052809291908181526020018280546111a0906121d2565b80156111ed5780601f106111c2576101008083540402835291602001916111ed565b820191906000526020600020905b8154815290600101906020018083116111d057829003601f168201915b505050505090806002018054611202906121d2565b80601f016020809104026020016040519081016040528092919081815260200182805461122e906121d2565b801561127b5780601f106112505761010080835404028352916020019161127b565b820191906000526020600020905b81548152906001019060200180831161125e57829003601f168201915b5050505050905083565b6060600382604051611297919061218c565b908152602001604051809103902060000180546112b3906121d2565b80601f01602080910402602001604051908101604052809291908181526020018280546112df906121d2565b801561132c5780601f106113015761010080835404028352916020019161132c565b820191906000526020600020905b81548152906001019060200180831161130f57829003601f168201915b50505050509050919050565b60006009819055506000604051806060016040528085815260200184815260200183815250905061136881610829565b61147757600181908060018154018082558091505060019003906000526020600020906003020160009091909190915060008201518160000190805190602001906113b49291906118e3565b5060208201518160010190805190602001906113d19291906118e3565b5060408201518160020190805190602001906113ee9291906118e3565b50505080600383604051611402919061218c565b9081526020016040518091039020600082015181600001908051906020019061142c9291906118e3565b5060208201518160010190805190602001906114499291906118e3565b5060408201518160020190805190602001906114669291906118e3565b509050506001600981905550611480565b60026009819055505b50505050565b600061154a60038360405161149b919061218c565b908152602001604051809103902060000180546114b7906121d2565b80601f01602080910402602001604051908101604052809291908181526020018280546114e3906121d2565b80156115305780601f1061150557610100808354040283529160200191611530565b820191906000526020600020905b81548152906001019060200180831161151357829003601f168201915b505050505060405180602001604052806000815250611561565b611557576001905061155c565b600090505b919050565b60008180519060200120838051906020012014905092915050565b600061164460028360400151604051611595919061218c565b908152602001604051809103902060000180546115b1906121d2565b80601f01602080910402602001604051908101604052809291908181526020018280546115dd906121d2565b801561162a5780601f106115ff5761010080835404028352916020019161162a565b820191906000526020600020905b81548152906001019060200180831161160d57829003601f168201915b505050505060405180602001604052806000815250611561565b6116515760019050611656565b600090505b919050565b6000600754905090565b6005818154811061167557600080fd5b906000526020600020016000915090508054611690906121d2565b80601f01602080910402602001604051908101604052809291908181526020018280546116bc906121d2565b80156117095780601f106116de57610100808354040283529160200191611709565b820191906000526020600020905b8154815290600101906020018083116116ec57829003601f168201915b505050505081565b6000818154811061172157600080fd5b9060005260206000209060030201600091509050806000018054611744906121d2565b80601f0160208091040260200160405190810160405280929190818152602001828054611770906121d2565b80156117bd5780601f10611792576101008083540402835291602001916117bd565b820191906000526020600020905b8154815290600101906020018083116117a057829003601f168201915b5050505050908060010180546117d2906121d2565b80601f01602080910402602001604051908101604052809291908181526020018280546117fe906121d2565b801561184b5780601f106118205761010080835404028352916020019161184b565b820191906000526020600020905b81548152906001019060200180831161182e57829003601f168201915b505050505090806002018054611860906121d2565b80601f016020809104026020016040519081016040528092919081815260200182805461188c906121d2565b80156118d95780601f106118ae576101008083540402835291602001916118d9565b820191906000526020600020905b8154815290600101906020018083116118bc57829003601f168201915b5050505050905083565b8280546118ef906121d2565b90600052602060002090601f0160209004810192826119115760008555611958565b82601f1061192a57805160ff1916838001178555611958565b82800160010185558215611958579182015b8281111561195757825182559160200191906001019061193c565b5b5090506119659190611969565b5090565b5b8082111561198257600081600090555060010161196a565b5090565b6000819050919050565b61199981611986565b82525050565b60006020820190506119b46000830184611990565b92915050565b6000604051905090565b600080fd5b600080fd5b600080fd5b600080fd5b6000601f19601f8301169050919050565b7f4e487b7100000000000000000000000000000000000000000000000000000000600052604160045260246000fd5b611a21826119d8565b810181811067ffffffffffffffff82111715611a4057611a3f6119e9565b5b80604052505050565b6000611a536119ba565b9050611a5f8282611a18565b919050565b600067ffffffffffffffff821115611a7f57611a7e6119e9565b5b611a88826119d8565b9050602081019050919050565b82818337600083830152505050565b6000611ab7611ab284611a64565b611a49565b905082815260208101848484011115611ad357611ad26119d3565b5b611ade848285611a95565b509392505050565b600082601f830112611afb57611afa6119ce565b5b8135611b0b848260208601611aa4565b91505092915050565b600060208284031215611b2a57611b296119c4565b5b600082013567ffffffffffffffff811115611b4857611b476119c9565b5b611b5484828501611ae6565b91505092915050565b60008115159050919050565b611b7281611b5d565b82525050565b6000602082019050611b8d6000830184611b69565b92915050565b611b9c81611986565b8114611ba757600080fd5b50565b600081359050611bb981611b93565b92915050565b600060208284031215611bd557611bd46119c4565b5b6000611be384828501611baa565b91505092915050565b600081519050919050565b600082825260208201905092915050565b60005b83811015611c26578082015181840152602081019050611c0b565b83811115611c35576000848401525b50505050565b6000611c4682611bec565b611c508185611bf7565b9350611c60818560208601611c08565b611c69816119d8565b840191505092915050565b60006020820190508181036000830152611c8e8184611c3b565b905092915050565b600080fd5b600080fd5b600060608284031215611cb657611cb5611c96565b5b611cc06060611a49565b9050600082013567ffffffffffffffff811115611ce057611cdf611c9b565b5b611cec84828501611ae6565b600083015250602082013567ffffffffffffffff811115611d1057611d0f611c9b565b5b611d1c84828501611ae6565b602083015250604082013567ffffffffffffffff811115611d4057611d3f611c9b565b5b611d4c84828501611ae6565b60408301525092915050565b600060208284031215611d6e57611d6d6119c4565b5b600082013567ffffffffffffffff811115611d8c57611d8b6119c9565b5b611d9884828501611ca0565b91505092915050565b60006060820190508181036000830152611dbb8186611c3b565b90508181036020830152611dcf8185611c3b565b90508181036040830152611de38184611c3b565b9050949350505050565b600080600060608486031215611e0657611e056119c4565b5b600084013567ffffffffffffffff811115611e2457611e236119c9565b5b611e3086828701611ae6565b935050602084013567ffffffffffffffff811115611e5157611e506119c9565b5b611e5d86828701611ae6565b925050604084013567ffffffffffffffff811115611e7e57611e7d6119c9565b5b611e8a86828701611ae6565b9150509250925092565b600081519050919050565b600082825260208201905092915050565b6000819050602082019050919050565b600082825260208201905092915050565b6000611edc82611bec565b611ee68185611ec0565b9350611ef6818560208601611c08565b611eff816119d8565b840191505092915050565b6000611f168383611ed1565b905092915050565b6000602082019050919050565b6000611f3682611e94565b611f408185611e9f565b935083602082028501611f5285611eb0565b8060005b85811015611f8e5784840389528151611f6f8582611f0a565b9450611f7a83611f1e565b925060208a01995050600181019050611f56565b50829750879550505050505092915050565b60006040820190508181036000830152611fba8185611f2b565b90508181036020830152611fce8184611f2b565b90509392505050565b60008060408385031215611fee57611fed6119c4565b5b600083013567ffffffffffffffff81111561200c5761200b6119c9565b5b61201885828601611ae6565b925050602083013567ffffffffffffffff811115612039576120386119c9565b5b61204585828601611ae6565b9150509250929050565b60006060828403121561206557612064611c96565b5b61206f6060611a49565b9050600082013567ffffffffffffffff81111561208f5761208e611c9b565b5b61209b84828501611ae6565b600083015250602082013567ffffffffffffffff8111156120bf576120be611c9b565b5b6120cb84828501611ae6565b602083015250604082013567ffffffffffffffff8111156120ef576120ee611c9b565b5b6120fb84828501611ae6565b60408301525092915050565b60006020828403121561211d5761211c6119c4565b5b600082013567ffffffffffffffff81111561213b5761213a6119c9565b5b6121478482850161204f565b91505092915050565b600081905092915050565b600061216682611bec565b6121708185612150565b9350612180818560208601611c08565b80840191505092915050565b6000612198828461215b565b915081905092915050565b7f4e487b7100000000000000000000000000000000000000000000000000000000600052602260045260246000fd5b600060028204905060018216806121ea57607f821691505b6020821081036121fd576121fc6121a3565b5b5091905056fea26469706673582212208056a45f28c6faab4349b7f4854f081bd8a8063f54d28dc34ab3b7c8734bbb0864736f6c634300080d0033",
  "immutableReferences": {},
  "source": "// SPDX-License-Identifier: MIT\r\npragma solidity ^0.8.10;\r\n\r\nstruct Evaluator{\r\n    string employee_id;\r\n    string email;\r\n    string wallet_address;\r\n}\r\n\r\nstruct Student{\r\n    string mis_number;\r\n    string email;\r\n    string wallet_address;\r\n}\r\n\r\ncontract BlockCheck{\r\n    Evaluator[] public Evaluators;\r\n    Student[] public Students;\r\n    mapping (string=>Evaluator) public mapWalletAddress2Evaluator;\r\n    mapping (string=>Student) public mapWalletAddress2Student;\r\n    mapping (string=>string) public mapMIS2Submission;\r\n\r\n\r\n    // Assignment functions START\r\n    function isAssignmentSubmitted(string memory _mis_number) public view returns(bool) {\r\n        if(areStringsEqual(mapMIS2Submission[_mis_number], \"\")) {\r\n            return false;\r\n        }\r\n        else {\r\n            return true;\r\n        }\r\n        \r\n    }\r\n    string[] public MIS_arr;\r\n    string[] public submission_arr;\r\n    function getAllSubmissions() public view returns(string[] memory, string[] memory) {\r\n        return (MIS_arr, submission_arr);\r\n    }\r\n    uint submissionState = 0;\r\n    function setSubmission(string memory _wallet_address, string memory _submission) public {\r\n        submissionState = 0;\r\n        string memory _mis_number = getMIS(_wallet_address);\r\n        if(!isAssignmentSubmitted(_mis_number)) {\r\n            mapMIS2Submission[_mis_number] = _submission;\r\n            MIS_arr.push(_mis_number);\r\n            submission_arr.push(_submission);\r\n            submissionState = 1;\r\n        }\r\n        else {\r\n            submissionState = 2;\r\n        }\r\n    }\r\n    function getSubmissionState() public view returns(uint) {\r\n        return submissionState;\r\n    }\r\n\r\n\r\n    // Assignment functions END\r\n\r\n    // Evaluator functions START\r\n    uint public state_add_evaluator = 0; // 0:not added\r\n    function getAddEvaluatorState() public view returns(uint) {\r\n        return state_add_evaluator;\r\n    }\r\n    function addEvaluator(string memory _employee_id, string memory _email, string memory _wallet_address) public {\r\n        state_add_evaluator = 0;\r\n        Evaluator memory newEvaluator = Evaluator({\r\n                    employee_id:_employee_id, \r\n                    email:_email,\r\n                    wallet_address:_wallet_address\r\n        });\r\n\r\n        if(!isEvaluatorRegistered(newEvaluator)) {\r\n                Evaluators.push(newEvaluator);\r\n                mapWalletAddress2Evaluator[_wallet_address] = newEvaluator;\r\n                state_add_evaluator = 1;\r\n        }\r\n        else {\r\n            state_add_evaluator = 2;\r\n        }\r\n    }\r\n\r\n    function isEvaluatorRegistered(Evaluator memory item) public view returns(bool) {\r\n        if(!areStringsEqual(mapWalletAddress2Evaluator[item.wallet_address].employee_id,\"\")) return true;\r\n        else return false;\r\n    }\r\n\r\n    function authenticateEvaluator(string memory _wallet_address) public view returns(bool) {\r\n        if(!areStringsEqual(mapWalletAddress2Evaluator[_wallet_address].employee_id,\"\")) return true;\r\n        else return false;\r\n    }\r\n\r\n    // Evaluator functions END\r\n\r\n    // Student functions START\r\n    \r\n    uint public state_add_student = 0; // 0:not added\r\n    function getAddStudentState() public view returns(uint) {\r\n        return state_add_student;\r\n    }\r\n    function addStudent(string memory _mis_number, string memory _email, string memory _wallet_address) public {\r\n        state_add_student = 0;\r\n        Student memory newStudent = Student({\r\n                    mis_number:_mis_number, \r\n                    email:_email,\r\n                    wallet_address:_wallet_address\r\n        });\r\n\r\n        if(!isStudentRegistered(newStudent)) {\r\n                Students.push(newStudent);\r\n                mapWalletAddress2Student[_wallet_address] = newStudent;\r\n                state_add_student = 1;\r\n        }\r\n        else {\r\n            state_add_student = 2;\r\n        }\r\n    }\r\n\r\n    function isStudentRegistered(Student memory item) public view returns(bool) {\r\n        if(!areStringsEqual(mapWalletAddress2Student[item.wallet_address].mis_number,\"\")) return true;\r\n        else return false;\r\n    }\r\n\r\n    function authenticateStudent(string memory _wallet_address) public view returns(bool) {\r\n        if(!areStringsEqual(mapWalletAddress2Student[_wallet_address].mis_number,\"\")) return true;\r\n        else return false;\r\n    }\r\n\r\n    function getMIS(string memory _wallet_address) public view returns(string memory) {\r\n        return mapWalletAddress2Student[_wallet_address].mis_number;\r\n    }\r\n\r\n    // Student functions END\r\n\r\n\r\n\r\n    // utility functions START\r\n    function areStringsEqual(string memory S1, string memory S2) public pure returns(bool){\r\n        return keccak256(bytes(S1)) == keccak256(bytes(S2));\r\n    }\r\n    // utility functions END\r\n}",
  "sourcePath": "D:\\Blockchain-Projects\\Plagiarism-Checker\\contracts\\BlockCheck.sol",
  "compiler": {
    "name": "solc",
    "version": "0.8.13+commit.abaa5c0e.Emscripten.clang"
  },
  "schemaVersion": "3.4.4",
  "updatedAt": "2022-04-28T09:09:17.032Z",
  "networkType": "ethereum",
  "devdoc": {
    "kind": "dev",
    "methods": {},
    "version": 1
  },
  "userdoc": {
    "kind": "user",
    "methods": {},
    "version": 1
  }
}