{
  "contractName": "BlockCheck",
  "abi": [
    {
      "inputs": [
        {
          "internalType": "uint256",
          "name": "",
          "type": "uint256"
        }
      ],
      "name": "Evaluators",
      "outputs": [
        {
          "internalType": "string",
          "name": "employee_id",
          "type": "string"
        },
        {
          "internalType": "string",
          "name": "email",
          "type": "string"
        },
        {
          "internalType": "string",
          "name": "wallet_address",
          "type": "string"
        }
      ],
      "stateMutability": "view",
      "type": "function",
      "constant": true
    },
    {
      "inputs": [
        {
          "internalType": "uint256",
          "name": "",
          "type": "uint256"
        }
      ],
      "name": "Students",
      "outputs": [
        {
          "internalType": "string",
          "name": "mis_number",
          "type": "string"
        },
        {
          "internalType": "string",
          "name": "email",
          "type": "string"
        },
        {
          "internalType": "string",
          "name": "wallet_address",
          "type": "string"
        }
      ],
      "stateMutability": "view",
      "type": "function",
      "constant": true
    },
    {
      "inputs": [
        {
          "internalType": "string",
          "name": "",
          "type": "string"
        }
      ],
      "name": "mapWalletAddress2Evaluator",
      "outputs": [
        {
          "internalType": "string",
          "name": "employee_id",
          "type": "string"
        },
        {
          "internalType": "string",
          "name": "email",
          "type": "string"
        },
        {
          "internalType": "string",
          "name": "wallet_address",
          "type": "string"
        }
      ],
      "stateMutability": "view",
      "type": "function",
      "constant": true
    },
    {
      "inputs": [
        {
          "internalType": "string",
          "name": "",
          "type": "string"
        }
      ],
      "name": "mapWalletAddress2Student",
      "outputs": [
        {
          "internalType": "string",
          "name": "mis_number",
          "type": "string"
        },
        {
          "internalType": "string",
          "name": "email",
          "type": "string"
        },
        {
          "internalType": "string",
          "name": "wallet_address",
          "type": "string"
        }
      ],
      "stateMutability": "view",
      "type": "function",
      "constant": true
    },
    {
      "inputs": [],
      "name": "state_add_evaluator",
      "outputs": [
        {
          "internalType": "uint256",
          "name": "",
          "type": "uint256"
        }
      ],
      "stateMutability": "view",
      "type": "function",
      "constant": true
    },
    {
      "inputs": [],
      "name": "state_add_student",
      "outputs": [
        {
          "internalType": "uint256",
          "name": "",
          "type": "uint256"
        }
      ],
      "stateMutability": "view",
      "type": "function",
      "constant": true
    },
    {
      "inputs": [],
      "name": "getAddEvaluatorState",
      "outputs": [
        {
          "internalType": "uint256",
          "name": "",
          "type": "uint256"
        }
      ],
      "stateMutability": "view",
      "type": "function",
      "constant": true
    },
    {
      "inputs": [
        {
          "internalType": "string",
          "name": "_employee_id",
          "type": "string"
        },
        {
          "internalType": "string",
          "name": "_email",
          "type": "string"
        },
        {
          "internalType": "string",
          "name": "_wallet_address",
          "type": "string"
        }
      ],
      "name": "addEvaluator",
      "outputs": [],
      "stateMutability": "nonpayable",
      "type": "function"
    },
    {
      "inputs": [
        {
          "components": [
            {
              "internalType": "string",
              "name": "employee_id",
              "type": "string"
            },
            {
              "internalType": "string",
              "name": "email",
              "type": "string"
            },
            {
              "internalType": "string",
              "name": "wallet_address",
              "type": "string"
            }
          ],
          "internalType": "struct Evaluator",
          "name": "item",
          "type": "tuple"
        }
      ],
      "name": "isEvaluatorRegistered",
      "outputs": [
        {
          "internalType": "bool",
          "name": "",
          "type": "bool"
        }
      ],
      "stateMutability": "view",
      "type": "function",
      "constant": true
    },
    {
      "inputs": [
        {
          "internalType": "string",
          "name": "_wallet_address",
          "type": "string"
        }
      ],
      "name": "authenticateEvaluator",
      "outputs": [
        {
          "internalType": "bool",
          "name": "",
          "type": "bool"
        }
      ],
      "stateMutability": "view",
      "type": "function",
      "constant": true
    },
    {
      "inputs": [],
      "name": "getAddStudentState",
      "outputs": [
        {
          "internalType": "uint256",
          "name": "",
          "type": "uint256"
        }
      ],
      "stateMutability": "view",
      "type": "function",
      "constant": true
    },
    {
      "inputs": [
        {
          "internalType": "string",
          "name": "_mis_number",
          "type": "string"
        },
        {
          "internalType": "string",
          "name": "_email",
          "type": "string"
        },
        {
          "internalType": "string",
          "name": "_wallet_address",
          "type": "string"
        }
      ],
      "name": "addStudent",
      "outputs": [],
      "stateMutability": "nonpayable",
      "type": "function"
    },
    {
      "inputs": [
        {
          "components": [
            {
              "internalType": "string",
              "name": "mis_number",
              "type": "string"
            },
            {
              "internalType": "string",
              "name": "email",
              "type": "string"
            },
            {
              "internalType": "string",
              "name": "wallet_address",
              "type": "string"
            }
          ],
          "internalType": "struct Student",
          "name": "item",
          "type": "tuple"
        }
      ],
      "name": "isStudentRegistered",
      "outputs": [
        {
          "internalType": "bool",
          "name": "",
          "type": "bool"
        }
      ],
      "stateMutability": "view",
      "type": "function",
      "constant": true
    },
    {
      "inputs": [
        {
          "internalType": "string",
          "name": "_wallet_address",
          "type": "string"
        }
      ],
      "name": "authenticateStudent",
      "outputs": [
        {
          "internalType": "bool",
          "name": "",
          "type": "bool"
        }
      ],
      "stateMutability": "view",
      "type": "function",
      "constant": true
    },
    {
      "inputs": [
        {
          "internalType": "string",
          "name": "S1",
          "type": "string"
        },
        {
          "internalType": "string",
          "name": "S2",
          "type": "string"
        }
      ],
      "name": "areStringsEqual",
      "outputs": [
        {
          "internalType": "bool",
          "name": "",
          "type": "bool"
        }
      ],
      "stateMutability": "pure",
      "type": "function",
      "constant": true
    }
  ],
  "bytecode": "0x60806040526000600455600060055534801561001a57600080fd5b506118f28061002a6000396000f3fe608060405234801561001057600080fd5b50600436106100f55760003560e01c80636cfc989a11610097578063aab3606d11610066578063aab3606d146102a0578063b1496cd4146102d0578063cefd795b14610300578063ff2fd69714610330576100f5565b80636cfc989a1461020257806391655a62146102345780639b6ae44514610252578063aa518b9014610284576100f5565b80634d3e1d4a116100d35780634d3e1d4a1461016657806357c8d71d1461019657806358b7831e146101c85780636092fdd5146101e4576100f5565b8063077ebe6d146100fa5780630c0550a1146101185780632d88901614610148575b600080fd5b610102610362565b60405161010f91906111bd565b60405180910390f35b610132600480360381019061012d9190611332565b61036c565b60405161013f9190611396565b60405180910390f35b610150610447565b60405161015d91906111bd565b60405180910390f35b610180600480360381019061017b9190611473565b61044d565b60405161018d9190611396565b60405180910390f35b6101b060048036038101906101ab91906114e8565b61052c565b6040516101bf9392919061159d565b60405180910390f35b6101e260048036038101906101dd91906115e9565b6106fe565b005b6101ec61084c565b6040516101f991906111bd565b60405180910390f35b61021c60048036038101906102179190611332565b610852565b60405161022b9392919061159d565b60405180910390f35b61023c610a2a565b60405161024991906111bd565b60405180910390f35b61026c60048036038101906102679190611332565b610a34565b60405161027b9392919061159d565b60405180910390f35b61029e600480360381019061029991906115e9565b610c0c565b005b6102ba60048036038101906102b59190611332565b610d5a565b6040516102c79190611396565b60405180910390f35b6102ea60048036038101906102e59190611690565b610e35565b6040516102f79190611396565b60405180910390f35b61031a600480360381019061031591906117c0565b610e50565b6040516103279190611396565b60405180910390f35b61034a600480360381019061034591906114e8565b610f2f565b6040516103599392919061159d565b60405180910390f35b6000600554905090565b60006104306002836040516103819190611845565b9081526020016040518091039020600001805461039d9061188b565b80601f01602080910402602001604051908101604052809291908181526020018280546103c99061188b565b80156104165780601f106103eb57610100808354040283529160200191610416565b820191906000526020600020905b8154815290600101906020018083116103f957829003601f168201915b505050505060405180602001604052806000815250610e35565b61043d5760019050610442565b600090505b919050565b60045481565b6000610515600383604001516040516104669190611845565b908152602001604051809103902060000180546104829061188b565b80601f01602080910402602001604051908101604052809291908181526020018280546104ae9061188b565b80156104fb5780601f106104d0576101008083540402835291602001916104fb565b820191906000526020600020905b8154815290600101906020018083116104de57829003601f168201915b505050505060405180602001604052806000815250610e35565b6105225760019050610527565b600090505b919050565b6001818154811061053c57600080fd5b906000526020600020906003020160009150905080600001805461055f9061188b565b80601f016020809104026020016040519081016040528092919081815260200182805461058b9061188b565b80156105d85780601f106105ad576101008083540402835291602001916105d8565b820191906000526020600020905b8154815290600101906020018083116105bb57829003601f168201915b5050505050908060010180546105ed9061188b565b80601f01602080910402602001604051908101604052809291908181526020018280546106199061188b565b80156106665780601f1061063b57610100808354040283529160200191610666565b820191906000526020600020905b81548152906001019060200180831161064957829003601f168201915b50505050509080600201805461067b9061188b565b80601f01602080910402602001604051908101604052809291908181526020018280546106a79061188b565b80156106f45780601f106106c9576101008083540402835291602001916106f4565b820191906000526020600020905b8154815290600101906020018083116106d757829003601f168201915b5050505050905083565b60006004819055506000604051806060016040528085815260200184815260200183815250905061072e81610e50565b61083d576000819080600181540180825580915050600190039060005260206000209060030201600090919091909150600082015181600001908051906020019061077a929190611101565b506020820151816001019080519060200190610797929190611101565b5060408201518160020190805190602001906107b4929190611101565b505050806002836040516107c89190611845565b908152602001604051809103902060008201518160000190805190602001906107f2929190611101565b50602082015181600101908051906020019061080f929190611101565b50604082015181600201908051906020019061082c929190611101565b509050506001600481905550610846565b60026004819055505b50505050565b60055481565b60028180516020810182018051848252602083016020850120818352809550505050505060009150905080600001805461088b9061188b565b80601f01602080910402602001604051908101604052809291908181526020018280546108b79061188b565b80156109045780601f106108d957610100808354040283529160200191610904565b820191906000526020600020905b8154815290600101906020018083116108e757829003601f168201915b5050505050908060010180546109199061188b565b80601f01602080910402602001604051908101604052809291908181526020018280546109459061188b565b80156109925780601f1061096757610100808354040283529160200191610992565b820191906000526020600020905b81548152906001019060200180831161097557829003601f168201915b5050505050908060020180546109a79061188b565b80601f01602080910402602001604051908101604052809291908181526020018280546109d39061188b565b8015610a205780601f106109f557610100808354040283529160200191610a20565b820191906000526020600020905b815481529060010190602001808311610a0357829003601f168201915b5050505050905083565b6000600454905090565b600381805160208101820180518482526020830160208501208183528095505050505050600091509050806000018054610a6d9061188b565b80601f0160208091040260200160405190810160405280929190818152602001828054610a999061188b565b8015610ae65780601f10610abb57610100808354040283529160200191610ae6565b820191906000526020600020905b815481529060010190602001808311610ac957829003601f168201915b505050505090806001018054610afb9061188b565b80601f0160208091040260200160405190810160405280929190818152602001828054610b279061188b565b8015610b745780601f10610b4957610100808354040283529160200191610b74565b820191906000526020600020905b815481529060010190602001808311610b5757829003601f168201915b505050505090806002018054610b899061188b565b80601f0160208091040260200160405190810160405280929190818152602001828054610bb59061188b565b8015610c025780601f10610bd757610100808354040283529160200191610c02565b820191906000526020600020905b815481529060010190602001808311610be557829003601f168201915b5050505050905083565b600060058190555060006040518060600160405280858152602001848152602001838152509050610c3c8161044d565b610d4b5760018190806001815401808255809150506001900390600052602060002090600302016000909190919091506000820151816000019080519060200190610c88929190611101565b506020820151816001019080519060200190610ca5929190611101565b506040820151816002019080519060200190610cc2929190611101565b50505080600383604051610cd69190611845565b90815260200160405180910390206000820151816000019080519060200190610d00929190611101565b506020820151816001019080519060200190610d1d929190611101565b506040820151816002019080519060200190610d3a929190611101565b509050506001600581905550610d54565b60026005819055505b50505050565b6000610e1e600383604051610d6f9190611845565b90815260200160405180910390206000018054610d8b9061188b565b80601f0160208091040260200160405190810160405280929190818152602001828054610db79061188b565b8015610e045780601f10610dd957610100808354040283529160200191610e04565b820191906000526020600020905b815481529060010190602001808311610de757829003601f168201915b505050505060405180602001604052806000815250610e35565b610e2b5760019050610e30565b600090505b919050565b60008180519060200120838051906020012014905092915050565b6000610f1860028360400151604051610e699190611845565b90815260200160405180910390206000018054610e859061188b565b80601f0160208091040260200160405190810160405280929190818152602001828054610eb19061188b565b8015610efe5780601f10610ed357610100808354040283529160200191610efe565b820191906000526020600020905b815481529060010190602001808311610ee157829003601f168201915b505050505060405180602001604052806000815250610e35565b610f255760019050610f2a565b600090505b919050565b60008181548110610f3f57600080fd5b9060005260206000209060030201600091509050806000018054610f629061188b565b80601f0160208091040260200160405190810160405280929190818152602001828054610f8e9061188b565b8015610fdb5780601f10610fb057610100808354040283529160200191610fdb565b820191906000526020600020905b815481529060010190602001808311610fbe57829003601f168201915b505050505090806001018054610ff09061188b565b80601f016020809104026020016040519081016040528092919081815260200182805461101c9061188b565b80156110695780601f1061103e57610100808354040283529160200191611069565b820191906000526020600020905b81548152906001019060200180831161104c57829003601f168201915b50505050509080600201805461107e9061188b565b80601f01602080910402602001604051908101604052809291908181526020018280546110aa9061188b565b80156110f75780601f106110cc576101008083540402835291602001916110f7565b820191906000526020600020905b8154815290600101906020018083116110da57829003601f168201915b5050505050905083565b82805461110d9061188b565b90600052602060002090601f01602090048101928261112f5760008555611176565b82601f1061114857805160ff1916838001178555611176565b82800160010185558215611176579182015b8281111561117557825182559160200191906001019061115a565b5b5090506111839190611187565b5090565b5b808211156111a0576000816000905550600101611188565b5090565b6000819050919050565b6111b7816111a4565b82525050565b60006020820190506111d260008301846111ae565b92915050565b6000604051905090565b600080fd5b600080fd5b600080fd5b600080fd5b6000601f19601f8301169050919050565b7f4e487b7100000000000000000000000000000000000000000000000000000000600052604160045260246000fd5b61123f826111f6565b810181811067ffffffffffffffff8211171561125e5761125d611207565b5b80604052505050565b60006112716111d8565b905061127d8282611236565b919050565b600067ffffffffffffffff82111561129d5761129c611207565b5b6112a6826111f6565b9050602081019050919050565b82818337600083830152505050565b60006112d56112d084611282565b611267565b9050828152602081018484840111156112f1576112f06111f1565b5b6112fc8482856112b3565b509392505050565b600082601f830112611319576113186111ec565b5b81356113298482602086016112c2565b91505092915050565b600060208284031215611348576113476111e2565b5b600082013567ffffffffffffffff811115611366576113656111e7565b5b61137284828501611304565b91505092915050565b60008115159050919050565b6113908161137b565b82525050565b60006020820190506113ab6000830184611387565b92915050565b600080fd5b600080fd5b6000606082840312156113d1576113d06113b1565b5b6113db6060611267565b9050600082013567ffffffffffffffff8111156113fb576113fa6113b6565b5b61140784828501611304565b600083015250602082013567ffffffffffffffff81111561142b5761142a6113b6565b5b61143784828501611304565b602083015250604082013567ffffffffffffffff81111561145b5761145a6113b6565b5b61146784828501611304565b60408301525092915050565b600060208284031215611489576114886111e2565b5b600082013567ffffffffffffffff8111156114a7576114a66111e7565b5b6114b3848285016113bb565b91505092915050565b6114c5816111a4565b81146114d057600080fd5b50565b6000813590506114e2816114bc565b92915050565b6000602082840312156114fe576114fd6111e2565b5b600061150c848285016114d3565b91505092915050565b600081519050919050565b600082825260208201905092915050565b60005b8381101561154f578082015181840152602081019050611534565b8381111561155e576000848401525b50505050565b600061156f82611515565b6115798185611520565b9350611589818560208601611531565b611592816111f6565b840191505092915050565b600060608201905081810360008301526115b78186611564565b905081810360208301526115cb8185611564565b905081810360408301526115df8184611564565b9050949350505050565b600080600060608486031215611602576116016111e2565b5b600084013567ffffffffffffffff8111156116205761161f6111e7565b5b61162c86828701611304565b935050602084013567ffffffffffffffff81111561164d5761164c6111e7565b5b61165986828701611304565b925050604084013567ffffffffffffffff81111561167a576116796111e7565b5b61168686828701611304565b9150509250925092565b600080604083850312156116a7576116a66111e2565b5b600083013567ffffffffffffffff8111156116c5576116c46111e7565b5b6116d185828601611304565b925050602083013567ffffffffffffffff8111156116f2576116f16111e7565b5b6116fe85828601611304565b9150509250929050565b60006060828403121561171e5761171d6113b1565b5b6117286060611267565b9050600082013567ffffffffffffffff811115611748576117476113b6565b5b61175484828501611304565b600083015250602082013567ffffffffffffffff811115611778576117776113b6565b5b61178484828501611304565b602083015250604082013567ffffffffffffffff8111156117a8576117a76113b6565b5b6117b484828501611304565b60408301525092915050565b6000602082840312156117d6576117d56111e2565b5b600082013567ffffffffffffffff8111156117f4576117f36111e7565b5b61180084828501611708565b91505092915050565b600081905092915050565b600061181f82611515565b6118298185611809565b9350611839818560208601611531565b80840191505092915050565b60006118518284611814565b915081905092915050565b7f4e487b7100000000000000000000000000000000000000000000000000000000600052602260045260246000fd5b600060028204905060018216806118a357607f821691505b6020821081036118b6576118b561185c565b5b5091905056fea26469706673582212204adbbffafe99cbc2445bdb6537d60a9475464f9abeb02bf7d7a78d8a48b9458e64736f6c634300080d0033",
  "immutableReferences": {},
  "source": "// SPDX-License-Identifier: MIT\r\npragma solidity ^0.8.10;\r\n\r\nstruct Evaluator{\r\n    string employee_id;\r\n    string email;\r\n    string wallet_address;\r\n}\r\n\r\nstruct Student{\r\n    string mis_number;\r\n    string email;\r\n    string wallet_address;\r\n}\r\n\r\ncontract BlockCheck{\r\n    Evaluator[] public Evaluators;\r\n    Student[] public Students;\r\n    mapping (string=>Evaluator) public mapWalletAddress2Evaluator;\r\n    mapping (string=>Student) public mapWalletAddress2Student;\r\n\r\n    // Evaluator functions START\r\n    uint public state_add_evaluator = 0; // 0:not added\r\n    function getAddEvaluatorState() public view returns(uint) {\r\n        return state_add_evaluator;\r\n    }\r\n    function addEvaluator(string memory _employee_id, string memory _email, string memory _wallet_address) public {\r\n        state_add_evaluator = 0;\r\n        Evaluator memory newEvaluator = Evaluator({\r\n                    employee_id:_employee_id, \r\n                    email:_email,\r\n                    wallet_address:_wallet_address\r\n        });\r\n\r\n        if(!isEvaluatorRegistered(newEvaluator)) {\r\n                Evaluators.push(newEvaluator);\r\n                mapWalletAddress2Evaluator[_wallet_address] = newEvaluator;\r\n                state_add_evaluator = 1;\r\n        }\r\n        else {\r\n            state_add_evaluator = 2;\r\n        }\r\n    }\r\n\r\n    function isEvaluatorRegistered(Evaluator memory item) public view returns(bool) {\r\n        if(!areStringsEqual(mapWalletAddress2Evaluator[item.wallet_address].employee_id,\"\")) return true;\r\n        else return false;\r\n    }\r\n\r\n    function authenticateEvaluator(string memory _wallet_address) public view returns(bool) {\r\n        if(!areStringsEqual(mapWalletAddress2Evaluator[_wallet_address].employee_id,\"\")) return true;\r\n        else return false;\r\n    }\r\n\r\n    // Evaluator functions END\r\n\r\n    // Student functions START\r\n    \r\n    uint public state_add_student = 0; // 0:not added\r\n    function getAddStudentState() public view returns(uint) {\r\n        return state_add_student;\r\n    }\r\n    function addStudent(string memory _mis_number, string memory _email, string memory _wallet_address) public {\r\n        state_add_student = 0;\r\n        Student memory newStudent = Student({\r\n                    mis_number:_mis_number, \r\n                    email:_email,\r\n                    wallet_address:_wallet_address\r\n        });\r\n\r\n        if(!isStudentRegistered(newStudent)) {\r\n                Students.push(newStudent);\r\n                mapWalletAddress2Student[_wallet_address] = newStudent;\r\n                state_add_student = 1;\r\n        }\r\n        else {\r\n            state_add_student = 2;\r\n        }\r\n    }\r\n\r\n    function isStudentRegistered(Student memory item) public view returns(bool) {\r\n        if(!areStringsEqual(mapWalletAddress2Student[item.wallet_address].mis_number,\"\")) return true;\r\n        else return false;\r\n    }\r\n\r\n    function authenticateStudent(string memory _wallet_address) public view returns(bool) {\r\n        if(!areStringsEqual(mapWalletAddress2Student[_wallet_address].mis_number,\"\")) return true;\r\n        else return false;\r\n    }\r\n\r\n    // Student functions END\r\n\r\n\r\n\r\n    // utility functions START\r\n    function areStringsEqual(string memory S1, string memory S2) public pure returns(bool){\r\n        return keccak256(bytes(S1)) == keccak256(bytes(S2));\r\n    }\r\n    // utility functions END\r\n}",
  "sourcePath": "E:\\Documents\\BlockchainPlag\\Plagiarism-Checker\\contracts\\BlockCheck.sol",
  "compiler": {
    "name": "solc",
    "version": "0.8.13+commit.abaa5c0e.Emscripten.clang"
  },
  "schemaVersion": "3.4.4",
  "updatedAt": "2022-04-25T09:51:28.334Z",
  "networkType": "ethereum",
  "devdoc": {
    "kind": "dev",
    "methods": {},
    "version": 1
  },
  "userdoc": {
    "kind": "user",
    "methods": {},
    "version": 1
  }
}